{
  "_format": "hh-sol-artifact-1",
  "contractName": "ClassPoll",
  "sourceName": "contracts/ClassPoll.sol",
  "abi": [
    {
      "inputs": [],
      "stateMutability": "nonpayable",
      "type": "constructor"
    },
    {
      "inputs": [
        {
          "internalType": "string",
          "name": "_question",
          "type": "string"
        },
        {
          "internalType": "string[]",
          "name": "_options",
          "type": "string[]"
        }
      ],
      "name": "createPoll",
      "outputs": [],
      "stateMutability": "nonpayable",
      "type": "function"
    },
    {
      "inputs": [],
      "name": "currentPoll",
      "outputs": [
        {
          "internalType": "string",
          "name": "question",
          "type": "string"
        }
      ],
      "stateMutability": "view",
      "type": "function"
    },
    {
      "inputs": [],
      "name": "getCurrentPoll",
      "outputs": [
        {
          "components": [
            {
              "internalType": "string",
              "name": "question",
              "type": "string"
            },
            {
              "internalType": "string[]",
              "name": "options",
              "type": "string[]"
            },
            {
              "internalType": "uint256[]",
              "name": "votes",
              "type": "uint256[]"
            }
          ],
          "internalType": "struct ClassPoll.Poll",
          "name": "",
          "type": "tuple"
        }
      ],
      "stateMutability": "view",
      "type": "function"
    },
    {
      "inputs": [],
      "name": "getVoteCounts",
      "outputs": [
        {
          "internalType": "uint256[]",
          "name": "",
          "type": "uint256[]"
        }
      ],
      "stateMutability": "view",
      "type": "function"
    },
    {
      "inputs": [],
      "name": "owner",
      "outputs": [
        {
          "internalType": "address",
          "name": "",
          "type": "address"
        }
      ],
      "stateMutability": "view",
      "type": "function"
    },
    {
      "inputs": [
        {
          "internalType": "uint256",
          "name": "_optionIndex",
          "type": "uint256"
        }
      ],
      "name": "vote",
      "outputs": [],
      "stateMutability": "nonpayable",
      "type": "function"
    }
  ],
  "bytecode": "0x608060405234801561001057600080fd5b50600380546001600160a01b03191633179055610ba8806100326000396000f3fe608060405234801561001057600080fd5b50600436106100625760003560e01c80630121b93f146100675780630ccf58591461007c578063581efa7a1461009a5780637e3d71c3146100af5780638da5cb5b146100c2578063ffc97b20146100ed575b600080fd5b61007a6100753660046106b8565b610102565b005b610084610181565b6040516100919190610717565b60405180910390f35b6100a2610213565b604051610091919061076c565b61007a6100bd3660046108c2565b61040c565b6003546100d5906001600160a01b031681565b6040516001600160a01b039091168152602001610091565b6100f5610551565b60405161009191906109a9565b600154811061014f5760405162461bcd60e51b8152602060048201526014602482015273092dcecc2d8d2c840dee0e8d2dedc40d2dcc8caf60631b60448201526064015b60405180910390fd5b6002805482908110610163576101636109ed565b6000918252602082200180549161017983610a03565b919050555050565b60008054819061019090610a2a565b80601f01602080910402602001604051908101604052809291908181526020018280546101bc90610a2a565b80156102095780601f106101de57610100808354040283529160200191610209565b820191906000526020600020905b8154815290600101906020018083116101ec57829003601f168201915b5050505050905081565b61023760405180606001604052806060815260200160608152602001606081525090565b600060405180606001604052908160008201805461025490610a2a565b80601f016020809104026020016040519081016040528092919081815260200182805461028090610a2a565b80156102cd5780601f106102a2576101008083540402835291602001916102cd565b820191906000526020600020905b8154815290600101906020018083116102b057829003601f168201915b5050505050815260200160018201805480602002602001604051908101604052809291908181526020016000905b828210156103a757838290600052602060002001805461031a90610a2a565b80601f016020809104026020016040519081016040528092919081815260200182805461034690610a2a565b80156103935780601f1061036857610100808354040283529160200191610393565b820191906000526020600020905b81548152906001019060200180831161037657829003601f168201915b5050505050815260200190600101906102fb565b505050508152602001600282018054806020026020016040519081016040528092919081815260200182805480156103fe57602002820191906000526020600020905b8154815260200190600101908083116103ea575b505050505081525050905090565b6003546001600160a01b031633146104745760405162461bcd60e51b815260206004820152602560248201527f4f6e6c7920746865206f776e65722063616e2063616c6c20746869732066756e60448201526431ba34b7b760d91b6064820152608401610146565b60018151116104d35760405162461bcd60e51b815260206004820152602560248201527f4120706f6c6c206d7573742068617665206174206c656173742074776f206f7060448201526474696f6e7360d81b6064820152608401610146565b60006104df8382610ab2565b5080516104f39060019060208401906105ac565b50805167ffffffffffffffff81111561050e5761050e61080b565b604051908082528060200260200182016040528015610537578160200160208202803683370190505b50805161054c91600291602090910190610602565b505050565b606060006002018054806020026020016040519081016040528092919081815260200182805480156105a257602002820191906000526020600020905b81548152602001906001019080831161058e575b5050505050905090565b8280548282559060005260206000209081019282156105f2579160200282015b828111156105f257825182906105e29082610ab2565b50916020019190600101906105cc565b506105fe929150610649565b5090565b82805482825590600052602060002090810192821561063d579160200282015b8281111561063d578251825591602001919060010190610622565b506105fe929150610666565b808211156105fe57600061065d828261067b565b50600101610649565b5b808211156105fe5760008155600101610667565b50805461068790610a2a565b6000825580601f10610697575050565b601f0160209004906000526020600020908101906106b59190610666565b50565b6000602082840312156106ca57600080fd5b5035919050565b6000815180845260005b818110156106f7576020818501810151868301820152016106db565b506000602082860101526020601f19601f83011685010191505092915050565b60208152600061072a60208301846106d1565b9392505050565b600081518084526020808501945080840160005b8381101561076157815187529582019590820190600101610745565b509495945050505050565b60006020808352835160608285015261078860808501826106d1565b82860151601f198683038101604088015281518084529293509084019183850190600581901b8501860160005b828110156107e157848783030184526107cf8287516106d1565b958801959388019391506001016107b5565b5060408a01519650838982030160608a01526107fd8188610731565b9a9950505050505050505050565b634e487b7160e01b600052604160045260246000fd5b604051601f8201601f1916810167ffffffffffffffff8111828210171561084a5761084a61080b565b604052919050565b600082601f83011261086357600080fd5b813567ffffffffffffffff81111561087d5761087d61080b565b610890601f8201601f1916602001610821565b8181528460208386010111156108a557600080fd5b816020850160208301376000918101602001919091529392505050565b600080604083850312156108d557600080fd5b823567ffffffffffffffff808211156108ed57600080fd5b6108f986838701610852565b935060209150818501358181111561091057600080fd5b8501601f8101871361092157600080fd5b8035828111156109335761093361080b565b8060051b610942858201610821565b918252828101850191858101908a84111561095c57600080fd5b86850192505b838310156109985782358681111561097a5760008081fd5b6109888c8983890101610852565b8352509186019190860190610962565b809750505050505050509250929050565b6020808252825182820181905260009190848201906040850190845b818110156109e1578351835292840192918401916001016109c5565b50909695505050505050565b634e487b7160e01b600052603260045260246000fd5b600060018201610a2357634e487b7160e01b600052601160045260246000fd5b5060010190565b600181811c90821680610a3e57607f821691505b602082108103610a5e57634e487b7160e01b600052602260045260246000fd5b50919050565b601f82111561054c57600081815260208120601f850160051c81016020861015610a8b5750805b601f850160051c820191505b81811015610aaa57828155600101610a97565b505050505050565b815167ffffffffffffffff811115610acc57610acc61080b565b610ae081610ada8454610a2a565b84610a64565b602080601f831160018114610b155760008415610afd5750858301515b600019600386901b1c1916600185901b178555610aaa565b600085815260208120601f198616915b82811015610b4457888601518255948401946001909101908401610b25565b5085821015610b625787850151600019600388901b60f8161c191681555b5050505050600190811b0190555056fea26469706673582212207012a24355a275cb87fce533a446287443e1d00591e34f3a66dea00156a3c34164736f6c63430008140033",
  "linkReferences": {},
  "deployedLinkReferences": {}
}