{
  "_format": "hh-sol-artifact-1",
  "contractName": "SongNFT",
  "sourceName": "contracts/SongNFT.sol",
  "abi": [
    {
      "inputs": [
        {
          "internalType": "address",
          "name": "signer",
          "type": "address"
        }
      ],
      "stateMutability": "nonpayable",
      "type": "constructor"
    },
    {
      "inputs": [
        {
          "internalType": "address",
          "name": "sender",
          "type": "address"
        },
        {
          "internalType": "uint256",
          "name": "tokenId",
          "type": "uint256"
        },
        {
          "internalType": "address",
          "name": "owner",
          "type": "address"
        }
      ],
      "name": "ERC721IncorrectOwner",
      "type": "error"
    },
    {
      "inputs": [
        {
          "internalType": "address",
          "name": "operator",
          "type": "address"
        },
        {
          "internalType": "uint256",
          "name": "tokenId",
          "type": "uint256"
        }
      ],
      "name": "ERC721InsufficientApproval",
      "type": "error"
    },
    {
      "inputs": [
        {
          "internalType": "address",
          "name": "approver",
          "type": "address"
        }
      ],
      "name": "ERC721InvalidApprover",
      "type": "error"
    },
    {
      "inputs": [
        {
          "internalType": "address",
          "name": "operator",
          "type": "address"
        }
      ],
      "name": "ERC721InvalidOperator",
      "type": "error"
    },
    {
      "inputs": [
        {
          "internalType": "address",
          "name": "owner",
          "type": "address"
        }
      ],
      "name": "ERC721InvalidOwner",
      "type": "error"
    },
    {
      "inputs": [
        {
          "internalType": "address",
          "name": "receiver",
          "type": "address"
        }
      ],
      "name": "ERC721InvalidReceiver",
      "type": "error"
    },
    {
      "inputs": [
        {
          "internalType": "address",
          "name": "sender",
          "type": "address"
        }
      ],
      "name": "ERC721InvalidSender",
      "type": "error"
    },
    {
      "inputs": [
        {
          "internalType": "uint256",
          "name": "tokenId",
          "type": "uint256"
        }
      ],
      "name": "ERC721NonexistentToken",
      "type": "error"
    },
    {
      "inputs": [
        {
          "internalType": "address",
          "name": "owner",
          "type": "address"
        }
      ],
      "name": "OwnableInvalidOwner",
      "type": "error"
    },
    {
      "inputs": [
        {
          "internalType": "address",
          "name": "account",
          "type": "address"
        }
      ],
      "name": "OwnableUnauthorizedAccount",
      "type": "error"
    },
    {
      "anonymous": false,
      "inputs": [
        {
          "indexed": true,
          "internalType": "address",
          "name": "owner",
          "type": "address"
        },
        {
          "indexed": true,
          "internalType": "address",
          "name": "approved",
          "type": "address"
        },
        {
          "indexed": true,
          "internalType": "uint256",
          "name": "tokenId",
          "type": "uint256"
        }
      ],
      "name": "Approval",
      "type": "event"
    },
    {
      "anonymous": false,
      "inputs": [
        {
          "indexed": true,
          "internalType": "address",
          "name": "owner",
          "type": "address"
        },
        {
          "indexed": true,
          "internalType": "address",
          "name": "operator",
          "type": "address"
        },
        {
          "indexed": false,
          "internalType": "bool",
          "name": "approved",
          "type": "bool"
        }
      ],
      "name": "ApprovalForAll",
      "type": "event"
    },
    {
      "anonymous": false,
      "inputs": [
        {
          "indexed": false,
          "internalType": "uint256",
          "name": "_fromTokenId",
          "type": "uint256"
        },
        {
          "indexed": false,
          "internalType": "uint256",
          "name": "_toTokenId",
          "type": "uint256"
        }
      ],
      "name": "BatchMetadataUpdate",
      "type": "event"
    },
    {
      "anonymous": false,
      "inputs": [
        {
          "indexed": false,
          "internalType": "uint256",
          "name": "_tokenId",
          "type": "uint256"
        }
      ],
      "name": "MetadataUpdate",
      "type": "event"
    },
    {
      "anonymous": false,
      "inputs": [
        {
          "indexed": true,
          "internalType": "address",
          "name": "previousOwner",
          "type": "address"
        },
        {
          "indexed": true,
          "internalType": "address",
          "name": "newOwner",
          "type": "address"
        }
      ],
      "name": "OwnershipTransferred",
      "type": "event"
    },
    {
      "anonymous": false,
      "inputs": [
        {
          "indexed": true,
          "internalType": "address",
          "name": "from",
          "type": "address"
        },
        {
          "indexed": true,
          "internalType": "address",
          "name": "to",
          "type": "address"
        },
        {
          "indexed": true,
          "internalType": "uint256",
          "name": "tokenId",
          "type": "uint256"
        }
      ],
      "name": "Transfer",
      "type": "event"
    },
    {
      "inputs": [
        {
          "internalType": "uint256",
          "name": "",
          "type": "uint256"
        }
      ],
      "name": "_courseProgress",
      "outputs": [
        {
          "internalType": "enum SongNFT.CourseProgress",
          "name": "",
          "type": "uint8"
        }
      ],
      "stateMutability": "view",
      "type": "function"
    },
    {
      "inputs": [
        {
          "internalType": "bytes",
          "name": "",
          "type": "bytes"
        }
      ],
      "name": "_signatures",
      "outputs": [
        {
          "internalType": "bool",
          "name": "",
          "type": "bool"
        }
      ],
      "stateMutability": "view",
      "type": "function"
    },
    {
      "inputs": [],
      "name": "_signer",
      "outputs": [
        {
          "internalType": "address",
          "name": "",
          "type": "address"
        }
      ],
      "stateMutability": "view",
      "type": "function"
    },
    {
      "inputs": [
        {
          "internalType": "address",
          "name": "to",
          "type": "address"
        },
        {
          "internalType": "uint256",
          "name": "tokenId",
          "type": "uint256"
        }
      ],
      "name": "approve",
      "outputs": [],
      "stateMutability": "nonpayable",
      "type": "function"
    },
    {
      "inputs": [
        {
          "internalType": "address",
          "name": "owner",
          "type": "address"
        }
      ],
      "name": "balanceOf",
      "outputs": [
        {
          "internalType": "uint256",
          "name": "",
          "type": "uint256"
        }
      ],
      "stateMutability": "view",
      "type": "function"
    },
    {
      "inputs": [
        {
          "internalType": "uint256",
          "name": "tokenId",
          "type": "uint256"
        }
      ],
      "name": "getApproved",
      "outputs": [
        {
          "internalType": "address",
          "name": "",
          "type": "address"
        }
      ],
      "stateMutability": "view",
      "type": "function"
    },
    {
      "inputs": [
        {
          "internalType": "address",
          "name": "_account",
          "type": "address"
        },
        {
          "internalType": "uint256",
          "name": "_tokenId",
          "type": "uint256"
        },
        {
          "internalType": "uint8",
          "name": "_progress",
          "type": "uint8"
        }
      ],
      "name": "getMessageHash",
      "outputs": [
        {
          "internalType": "bytes32",
          "name": "",
          "type": "bytes32"
        }
      ],
      "stateMutability": "pure",
      "type": "function"
    },
    {
      "inputs": [
        {
          "internalType": "address",
          "name": "owner",
          "type": "address"
        },
        {
          "internalType": "address",
          "name": "operator",
          "type": "address"
        }
      ],
      "name": "isApprovedForAll",
      "outputs": [
        {
          "internalType": "bool",
          "name": "",
          "type": "bool"
        }
      ],
      "stateMutability": "view",
      "type": "function"
    },
    {
      "inputs": [],
      "name": "name",
      "outputs": [
        {
          "internalType": "string",
          "name": "",
          "type": "string"
        }
      ],
      "stateMutability": "view",
      "type": "function"
    },
    {
      "inputs": [],
      "name": "owner",
      "outputs": [
        {
          "internalType": "address",
          "name": "",
          "type": "address"
        }
      ],
      "stateMutability": "view",
      "type": "function"
    },
    {
      "inputs": [
        {
          "internalType": "uint256",
          "name": "tokenId",
          "type": "uint256"
        }
      ],
      "name": "ownerOf",
      "outputs": [
        {
          "internalType": "address",
          "name": "",
          "type": "address"
        }
      ],
      "stateMutability": "view",
      "type": "function"
    },
    {
      "inputs": [],
      "name": "renounceOwnership",
      "outputs": [],
      "stateMutability": "nonpayable",
      "type": "function"
    },
    {
      "inputs": [],
      "name": "safeMint",
      "outputs": [],
      "stateMutability": "nonpayable",
      "type": "function"
    },
    {
      "inputs": [
        {
          "internalType": "address",
          "name": "from",
          "type": "address"
        },
        {
          "internalType": "address",
          "name": "to",
          "type": "address"
        },
        {
          "internalType": "uint256",
          "name": "tokenId",
          "type": "uint256"
        }
      ],
      "name": "safeTransferFrom",
      "outputs": [],
      "stateMutability": "nonpayable",
      "type": "function"
    },
    {
      "inputs": [
        {
          "internalType": "address",
          "name": "from",
          "type": "address"
        },
        {
          "internalType": "address",
          "name": "to",
          "type": "address"
        },
        {
          "internalType": "uint256",
          "name": "tokenId",
          "type": "uint256"
        },
        {
          "internalType": "bytes",
          "name": "data",
          "type": "bytes"
        }
      ],
      "name": "safeTransferFrom",
      "outputs": [],
      "stateMutability": "nonpayable",
      "type": "function"
    },
    {
      "inputs": [
        {
          "internalType": "address",
          "name": "operator",
          "type": "address"
        },
        {
          "internalType": "bool",
          "name": "approved",
          "type": "bool"
        }
      ],
      "name": "setApprovalForAll",
      "outputs": [],
      "stateMutability": "nonpayable",
      "type": "function"
    },
    {
      "inputs": [
        {
          "internalType": "bytes4",
          "name": "interfaceId",
          "type": "bytes4"
        }
      ],
      "name": "supportsInterface",
      "outputs": [
        {
          "internalType": "bool",
          "name": "",
          "type": "bool"
        }
      ],
      "stateMutability": "view",
      "type": "function"
    },
    {
      "inputs": [],
      "name": "symbol",
      "outputs": [
        {
          "internalType": "string",
          "name": "",
          "type": "string"
        }
      ],
      "stateMutability": "view",
      "type": "function"
    },
    {
      "inputs": [
        {
          "internalType": "uint256",
          "name": "tokenId",
          "type": "uint256"
        }
      ],
      "name": "tokenURI",
      "outputs": [
        {
          "internalType": "string",
          "name": "",
          "type": "string"
        }
      ],
      "stateMutability": "view",
      "type": "function"
    },
    {
      "inputs": [
        {
          "internalType": "address",
          "name": "from",
          "type": "address"
        },
        {
          "internalType": "address",
          "name": "to",
          "type": "address"
        },
        {
          "internalType": "uint256",
          "name": "tokenId",
          "type": "uint256"
        }
      ],
      "name": "transferFrom",
      "outputs": [],
      "stateMutability": "nonpayable",
      "type": "function"
    },
    {
      "inputs": [
        {
          "internalType": "address",
          "name": "newOwner",
          "type": "address"
        }
      ],
      "name": "transferOwnership",
      "outputs": [],
      "stateMutability": "nonpayable",
      "type": "function"
    },
    {
      "inputs": [
        {
          "internalType": "uint256",
          "name": "tokenId",
          "type": "uint256"
        },
        {
          "internalType": "uint8",
          "name": "progress",
          "type": "uint8"
        },
        {
          "internalType": "bytes",
          "name": "signature",
          "type": "bytes"
        }
      ],
      "name": "updateCourseProgress",
      "outputs": [],
      "stateMutability": "nonpayable",
      "type": "function"
    },
    {
      "inputs": [
        {
          "internalType": "bytes32",
          "name": "_msgHash",
          "type": "bytes32"
        },
        {
          "internalType": "bytes",
          "name": "_signature",
          "type": "bytes"
        }
      ],
      "name": "verify",
      "outputs": [
        {
          "internalType": "bool",
          "name": "",
          "type": "bool"
        }
      ],
      "stateMutability": "view",
      "type": "function"
    }
  ],
  "bytecode": "0x61022060405260426101a0818152608091829190620021926101c0398152602001604051806080016040528060428152602001620020cc604291398152602001604051806080016040528060428152602001620021d4604291398152602001604051806080016040528060428152602001620020066042913981526020016040518060800160405280604281526020016200210e6042913981526020016040518060800160405280604281526020016200208a604291398152602001604051806080016040528060428152602001620022166042913981526020016040518060800160405280604281526020016200204860429139815260200160405180608001604052806042815260200162002150604291399052620001259060089060096200026a565b503480156200013357600080fd5b506040516200225838038062002258833981016040819052620001569162000334565b336040518060400160405280600781526020016614dbdb99d3919560ca1b81525060405180604001604052806004815260200163536f6e6760e01b8152508160009081620001a591906200040b565b506001620001b482826200040b565b5050506001600160a01b038116620001e657604051631e4fbdf760e01b81526000600482015260240160405180910390fd5b620001f18162000218565b50601280546001600160a01b0319166001600160a01b0392909216919091179055620004d7565b600780546001600160a01b038381166001600160a01b0319831681179093556040519116919082907f8be0079c531659141344cd1fd0a4f28419497f9722a3daafe3b4186f6b6457e090600090a35050565b8260098101928215620002a8579160200282015b82811115620002a857825182906200029790826200040b565b50916020019190600101906200027e565b50620002b6929150620002ba565b5090565b80821115620002b6576000620002d18282620002db565b50600101620002ba565b508054620002e9906200037c565b6000825580601f10620002fa575050565b601f0160209004906000526020600020908101906200031a91906200031d565b50565b5b80821115620002b657600081556001016200031e565b6000602082840312156200034757600080fd5b81516001600160a01b03811681146200035f57600080fd5b9392505050565b634e487b7160e01b600052604160045260246000fd5b600181811c908216806200039157607f821691505b602082108103620003b257634e487b7160e01b600052602260045260246000fd5b50919050565b601f8211156200040657600081815260208120601f850160051c81016020861015620003e15750805b601f850160051c820191505b818110156200040257828155600101620003ed565b5050505b505050565b81516001600160401b0381111562000427576200042762000366565b6200043f816200043884546200037c565b84620003b8565b602080601f8311600181146200047757600084156200045e5750858301515b600019600386901b1c1916600185901b17855562000402565b600085815260208120601f198616915b82811015620004a85788860151825594840194600190910190840162000487565b5085821015620004c75787850151600019600388901b60f8161c191681555b5050505050600190811b01905550565b611b1f80620004e76000396000f3fe608060405234801561001057600080fd5b506004361061014d5760003560e01c8063715018a6116100c3578063a22cb4651161007c578063a22cb465146102e9578063b88d4fde146102fc578063c87b56dd1461030f578063ca29e8c814610322578063e985e9c514610335578063f2fde38b1461034857600080fd5b8063715018a6146102575780637f82a0db1461025f5780638da5cb5b1461028f578063934836e2146102a057806395d89b41146102b35780639eabf1f2146102bb57600080fd5b8063258ae58211610115578063258ae582146101e25780633a824316146101f557806342842e0e146102165780636352211e146102295780636871ee401461023c57806370a082311461024457600080fd5b806301ffc9a71461015257806306fdde031461017a578063081812fc1461018f578063095ea7b3146101ba57806323b872dd146101cf575b600080fd5b6101656101603660046114cf565b61035b565b60405190151581526020015b60405180910390f35b61018261036c565b604051610171919061153c565b6101a261019d36600461154f565b6103fe565b6040516001600160a01b039091168152602001610171565b6101cd6101c8366004611584565b610427565b005b6101cd6101dd3660046115ae565b610436565b6101656101f036600461168d565b6104c6565b6102086102033660046116e5565b6104ee565b604051908152602001610171565b6101cd6102243660046115ae565b61054a565b6101a261023736600461154f565b61056a565b6101cd610575565b610208610252366004611721565b610646565b6101cd61068e565b61028261026d36600461154f565b60146020526000908152604090205460ff1681565b6040516101719190611752565b6007546001600160a01b03166101a2565b6101cd6102ae36600461177a565b6106a2565b610182610956565b6101656102c93660046117d1565b805160208183018101805160138252928201919093012091525460ff1681565b6101cd6102f7366004611806565b610965565b6101cd61030a366004611842565b610970565b61018261031d36600461154f565b610987565b6012546101a2906001600160a01b031681565b6101656103433660046118aa565b610992565b6101cd610356366004611721565b6109c0565b6000610366826109fe565b92915050565b60606000805461037b906118dd565b80601f01602080910402602001604051908101604052809291908181526020018280546103a7906118dd565b80156103f45780601f106103c9576101008083540402835291602001916103f4565b820191906000526020600020905b8154815290600101906020018083116103d757829003601f168201915b5050505050905090565b600061040982610a23565b506000828152600460205260409020546001600160a01b0316610366565b610432828233610a5c565b5050565b6001600160a01b03821661046557604051633250574960e11b8152600060048201526024015b60405180910390fd5b6000610472838333610a69565b9050836001600160a01b0316816001600160a01b0316146104c0576040516364283d7b60e01b81526001600160a01b038086166004830152602482018490528216604482015260640161045c565b50505050565b6000806104d38484610b62565b50506012546001600160a01b03908116911614949350505050565b6040516bffffffffffffffffffffffff19606085901b166020820152603481018390526001600160f81b031960f883901b1660548201526000906055016040516020818303038152906040528051906020012090509392505050565b61056583838360405180602001604052806000815250610970565b505050565b600061036682610a23565b601180546000918261058683611917565b9190505590506105963382610baf565b61062e81600860005b0180546105ab906118dd565b80601f01602080910402602001604051908101604052809291908181526020018280546105d7906118dd565b80156106245780601f106105f957610100808354040283529160200191610624565b820191906000526020600020905b81548152906001019060200180831161060757829003601f168201915b5050505050610bc9565b6000908152601460205260409020805460ff19169055565b60006001600160a01b038216610672576040516322718ad960e21b81526000600482015260240161045c565b506001600160a01b031660009081526003602052604090205490565b610696610c19565b6106a06000610c46565b565b6013816040516106b2919061193e565b9081526040519081900360200190205460ff161561070b5760405162461bcd60e51b815260206004820152601660248201527514da59db985d1d5c9948105b1c9958591e48155cd95960521b604482015260640161045c565b60006107183385856104ee565b90506000610773826040517f19457468657265756d205369676e6564204d6573736167653a0a3332000000006020820152603c8101829052600090605c01604051602081830303815290604052805190602001209050919050565b905061077f81846104c6565b6107bf5760405162461bcd60e51b8152602060048201526011602482015270496e76616c6964205369676e617475726560781b604482015260640161045c565b60016013846040516107d1919061193e565b9081526040805160209281900383019020805460ff1916931515939093179092556000878152600290915220546001600160a01b03163381146108485760405162461bcd60e51b815260206004820152600f60248201526e125b9d985b1a5908151bdad95b9259608a1b604482015260640161045c565b60008681526014602052604081205460ff16600281111561086b5761086b61173c565b14806108995750600160008781526014602052604090205460ff1660028111156108975761089761173c565b145b6108dd5760405162461bcd60e51b815260206004820152601560248201527421b7bab939b290283937b3b932b9b99022b93937b960591b604482015260640161045c565b60001960ff861601610918576000868152601460205260409020805460ff1916600190811790915561091390879060089061059f565b61094e565b60011960ff86160161094e576000868152601460205260409020805460ff1916600290811790915561094e90879060089061059f565b505050505050565b60606001805461037b906118dd565b610432338383610c98565b61097b848484610436565b6104c084848484610d37565b606061036682610e60565b6001600160a01b03918216600090815260056020908152604080832093909416825291909152205460ff1690565b6109c8610c19565b6001600160a01b0381166109f257604051631e4fbdf760e01b81526000600482015260240161045c565b6109fb81610c46565b50565b60006001600160e01b03198216632483248360e11b1480610366575061036682610f71565b6000818152600260205260408120546001600160a01b03168061036657604051637e27328960e01b81526004810184905260240161045c565b6105658383836001610fc1565b6000828152600260205260408120546001600160a01b0390811690831615610a9657610a968184866110c7565b6001600160a01b03811615610ad457610ab3600085600080610fc1565b6001600160a01b038116600090815260036020526040902080546000190190555b6001600160a01b03851615610b03576001600160a01b0385166000908152600360205260409020805460010190555b60008481526002602052604080822080546001600160a01b0319166001600160a01b0389811691821790925591518793918516917fddf252ad1be2c89b69c2b068fc378daa952ba7f163c4a11628f55a4df523b3ef91a4949350505050565b60008060008351604103610b9c5760208401516040850151606086015160001a610b8e8882858561112b565b955095509550505050610ba8565b50508151600091506002905b9250925092565b6104328282604051806020016040528060008152506111fa565b6000828152600660205260409020610be182826119a0565b506040518281527ff8e1a15aba9398e019f0b49df1a4fde98ee17ae345cb5f6b5e2c27f5033e8ce79060200160405180910390a15050565b6007546001600160a01b031633146106a05760405163118cdaa760e01b815233600482015260240161045c565b600780546001600160a01b038381166001600160a01b0319831681179093556040519116919082907f8be0079c531659141344cd1fd0a4f28419497f9722a3daafe3b4186f6b6457e090600090a35050565b6001600160a01b038216610cca57604051630b61174360e31b81526001600160a01b038316600482015260240161045c565b6001600160a01b03838116600081815260056020908152604080832094871680845294825291829020805460ff191686151590811790915591519182527f17307eab39ab6107e8899845ad3d59bd9653f200f220920489ca2b5937696c31910160405180910390a3505050565b6001600160a01b0383163b156104c057604051630a85bd0160e11b81526001600160a01b0384169063150b7a0290610d79903390889087908790600401611a60565b6020604051808303816000875af1925050508015610db4575060408051601f3d908101601f19168201909252610db191810190611a9d565b60015b610e1d573d808015610de2576040519150601f19603f3d011682016040523d82523d6000602084013e610de7565b606091505b508051600003610e1557604051633250574960e11b81526001600160a01b038516600482015260240161045c565b805181602001fd5b6001600160e01b03198116630a85bd0160e11b14610e5957604051633250574960e11b81526001600160a01b038516600482015260240161045c565b5050505050565b6060610e6b82610a23565b5060008281526006602052604081208054610e85906118dd565b80601f0160208091040260200160405190810160405280929190818152602001828054610eb1906118dd565b8015610efe5780601f10610ed357610100808354040283529160200191610efe565b820191906000526020600020905b815481529060010190602001808311610ee157829003601f168201915b505050505090506000610f1c60408051602081019091526000815290565b90508051600003610f2e575092915050565b815115610f60578082604051602001610f48929190611aba565b60405160208183030381529060405292505050919050565b610f6984611211565b949350505050565b60006001600160e01b031982166380ac58cd60e01b1480610fa257506001600160e01b03198216635b5e139f60e01b145b8061036657506301ffc9a760e01b6001600160e01b0319831614610366565b8080610fd557506001600160a01b03821615155b15611097576000610fe584610a23565b90506001600160a01b038316158015906110115750826001600160a01b0316816001600160a01b031614155b801561102457506110228184610992565b155b1561104d5760405163a9fbf51f60e01b81526001600160a01b038416600482015260240161045c565b81156110955783856001600160a01b0316826001600160a01b03167f8c5be1e5ebec7d5bd14f71427d1e84f3dd0314c0f7b2291e5b200ac8c7c3b92560405160405180910390a45b505b5050600090815260046020526040902080546001600160a01b0319166001600160a01b0392909216919091179055565b6110d2838383611286565b610565576001600160a01b03831661110057604051637e27328960e01b81526004810182905260240161045c565b60405163177e802f60e01b81526001600160a01b03831660048201526024810182905260440161045c565b600080807f7fffffffffffffffffffffffffffffff5d576e7357a4501ddfe92f46681b20a084111561116657506000915060039050826111f0565b604080516000808252602082018084528a905260ff891692820192909252606081018790526080810186905260019060a0016020604051602081039080840390855afa1580156111ba573d6000803e3d6000fd5b5050604051601f1901519150506001600160a01b0381166111e6575060009250600191508290506111f0565b9250600091508190505b9450945094915050565b61120483836112e9565b6105656000848484610d37565b606061121c82610a23565b50600061123460408051602081019091526000815290565b90506000815111611254576040518060200160405280600081525061127f565b8061125e8461134e565b60405160200161126f929190611aba565b6040516020818303038152906040525b9392505050565b60006001600160a01b03831615801590610f695750826001600160a01b0316846001600160a01b031614806112c057506112c08484610992565b80610f695750506000908152600460205260409020546001600160a01b03908116911614919050565b6001600160a01b03821661131357604051633250574960e11b81526000600482015260240161045c565b600061132183836000610a69565b90506001600160a01b03811615610565576040516339e3563760e11b81526000600482015260240161045c565b6060600061135b836113e1565b600101905060008167ffffffffffffffff81111561137b5761137b6115ea565b6040519080825280601f01601f1916602001820160405280156113a5576020820181803683370190505b5090508181016020015b600019016f181899199a1a9b1b9c1cb0b131b232b360811b600a86061a8153600a85049450846113af57509392505050565b60008072184f03e93ff9f4daa797ed6e38ed64bf6a1f0160401b83106114205772184f03e93ff9f4daa797ed6e38ed64bf6a1f0160401b830492506040015b6d04ee2d6d415b85acef8100000000831061144c576d04ee2d6d415b85acef8100000000830492506020015b662386f26fc10000831061146a57662386f26fc10000830492506010015b6305f5e1008310611482576305f5e100830492506008015b612710831061149657612710830492506004015b606483106114a8576064830492506002015b600a83106103665760010192915050565b6001600160e01b0319811681146109fb57600080fd5b6000602082840312156114e157600080fd5b813561127f816114b9565b60005b838110156115075781810151838201526020016114ef565b50506000910152565b600081518084526115288160208601602086016114ec565b601f01601f19169290920160200192915050565b60208152600061127f6020830184611510565b60006020828403121561156157600080fd5b5035919050565b80356001600160a01b038116811461157f57600080fd5b919050565b6000806040838503121561159757600080fd5b6115a083611568565b946020939093013593505050565b6000806000606084860312156115c357600080fd5b6115cc84611568565b92506115da60208501611568565b9150604084013590509250925092565b634e487b7160e01b600052604160045260246000fd5b600082601f83011261161157600080fd5b813567ffffffffffffffff8082111561162c5761162c6115ea565b604051601f8301601f19908116603f01168101908282118183101715611654576116546115ea565b8160405283815286602085880101111561166d57600080fd5b836020870160208301376000602085830101528094505050505092915050565b600080604083850312156116a057600080fd5b82359150602083013567ffffffffffffffff8111156116be57600080fd5b6116ca85828601611600565b9150509250929050565b803560ff8116811461157f57600080fd5b6000806000606084860312156116fa57600080fd5b61170384611568565b925060208401359150611718604085016116d4565b90509250925092565b60006020828403121561173357600080fd5b61127f82611568565b634e487b7160e01b600052602160045260246000fd5b602081016003831061177457634e487b7160e01b600052602160045260246000fd5b91905290565b60008060006060848603121561178f57600080fd5b8335925061179f602085016116d4565b9150604084013567ffffffffffffffff8111156117bb57600080fd5b6117c786828701611600565b9150509250925092565b6000602082840312156117e357600080fd5b813567ffffffffffffffff8111156117fa57600080fd5b610f6984828501611600565b6000806040838503121561181957600080fd5b61182283611568565b91506020830135801515811461183757600080fd5b809150509250929050565b6000806000806080858703121561185857600080fd5b61186185611568565b935061186f60208601611568565b925060408501359150606085013567ffffffffffffffff81111561189257600080fd5b61189e87828801611600565b91505092959194509250565b600080604083850312156118bd57600080fd5b6118c683611568565b91506118d460208401611568565b90509250929050565b600181811c908216806118f157607f821691505b60208210810361191157634e487b7160e01b600052602260045260246000fd5b50919050565b60006001820161193757634e487b7160e01b600052601160045260246000fd5b5060010190565b600082516119508184602087016114ec565b9190910192915050565b601f82111561056557600081815260208120601f850160051c810160208610156119815750805b601f850160051c820191505b8181101561094e5782815560010161198d565b815167ffffffffffffffff8111156119ba576119ba6115ea565b6119ce816119c884546118dd565b8461195a565b602080601f831160018114611a0357600084156119eb5750858301515b600019600386901b1c1916600185901b17855561094e565b600085815260208120601f198616915b82811015611a3257888601518255948401946001909101908401611a13565b5085821015611a505787850151600019600388901b60f8161c191681555b5050505050600190811b01905550565b6001600160a01b0385811682528416602082015260408101839052608060608201819052600090611a9390830184611510565b9695505050505050565b600060208284031215611aaf57600080fd5b815161127f816114b9565b60008351611acc8184602088016114ec565b835190830190611ae08183602088016114ec565b0194935050505056fea2646970667358221220531c994eb79952c787632ba20962f18bcfc038ec193b939b51de7fb6119dae5964736f6c63430008140033697066733a2f2f6261666b726569687975656c3733756b343236686a61706d7961716672376a7061756263766e726c766c6d74346e746f63626f746977716271336d697066733a2f2f6261666b7265696261736178766a34767769716e6b6b766b7761736364646762366a7262367379676464687a6e6c32786866777367763262717965697066733a2f2f6261666b726569677169366932686766787634633263736d356b7a637073627a64757737777a6c6f7264626374356565326762327a727a36656375697066733a2f2f6261666b7265696778686674787575776c79766d346679776a71716b337673676134366f37757869626f6571656275716b646f78766b6c62376b69697066733a2f2f6261666b726569617278626f6870676e6467376a6135346d6376636e77657573743769347170776a77616d6668336e6c6b6f637063377963746c6d697066733a2f2f6261666b7265696661706776653576773578633770347866376633796c763269676777337937637137736f61366d783634687363726d6b66707061697066733a2f2f6261666b726569647770726d6f706d326f73796f706e6d7273696a336f6333707166773667323772636d78693437786e6c72747a6e776175767765697066733a2f2f6261666b726569646f7736326f34656e746d6f6e6e716e7a71626271677a6432697936767a706d37646c7867706477796f787a707070786d666571697066733a2f2f6261666b72656964706e6b6c73753532666662746a716e6b75696875366e68646b6f786a7278796c75647861617075717634746177356c6f686569",
  "linkReferences": {},
  "deployedLinkReferences": {}
}