{
  "_format": "hh-sol-artifact-1",
  "contractName": "SongNFT",
  "sourceName": "contracts/SongNFT.sol",
  "abi": [
    {
      "inputs": [
        {
          "internalType": "address",
          "name": "signer",
          "type": "address"
        }
      ],
      "stateMutability": "nonpayable",
      "type": "constructor"
    },
    {
      "inputs": [
        {
          "internalType": "address",
          "name": "sender",
          "type": "address"
        },
        {
          "internalType": "uint256",
          "name": "tokenId",
          "type": "uint256"
        },
        {
          "internalType": "address",
          "name": "owner",
          "type": "address"
        }
      ],
      "name": "ERC721IncorrectOwner",
      "type": "error"
    },
    {
      "inputs": [
        {
          "internalType": "address",
          "name": "operator",
          "type": "address"
        },
        {
          "internalType": "uint256",
          "name": "tokenId",
          "type": "uint256"
        }
      ],
      "name": "ERC721InsufficientApproval",
      "type": "error"
    },
    {
      "inputs": [
        {
          "internalType": "address",
          "name": "approver",
          "type": "address"
        }
      ],
      "name": "ERC721InvalidApprover",
      "type": "error"
    },
    {
      "inputs": [
        {
          "internalType": "address",
          "name": "operator",
          "type": "address"
        }
      ],
      "name": "ERC721InvalidOperator",
      "type": "error"
    },
    {
      "inputs": [
        {
          "internalType": "address",
          "name": "owner",
          "type": "address"
        }
      ],
      "name": "ERC721InvalidOwner",
      "type": "error"
    },
    {
      "inputs": [
        {
          "internalType": "address",
          "name": "receiver",
          "type": "address"
        }
      ],
      "name": "ERC721InvalidReceiver",
      "type": "error"
    },
    {
      "inputs": [
        {
          "internalType": "address",
          "name": "sender",
          "type": "address"
        }
      ],
      "name": "ERC721InvalidSender",
      "type": "error"
    },
    {
      "inputs": [
        {
          "internalType": "uint256",
          "name": "tokenId",
          "type": "uint256"
        }
      ],
      "name": "ERC721NonexistentToken",
      "type": "error"
    },
    {
      "inputs": [
        {
          "internalType": "address",
          "name": "owner",
          "type": "address"
        }
      ],
      "name": "OwnableInvalidOwner",
      "type": "error"
    },
    {
      "inputs": [
        {
          "internalType": "address",
          "name": "account",
          "type": "address"
        }
      ],
      "name": "OwnableUnauthorizedAccount",
      "type": "error"
    },
    {
      "anonymous": false,
      "inputs": [
        {
          "indexed": true,
          "internalType": "address",
          "name": "owner",
          "type": "address"
        },
        {
          "indexed": true,
          "internalType": "address",
          "name": "approved",
          "type": "address"
        },
        {
          "indexed": true,
          "internalType": "uint256",
          "name": "tokenId",
          "type": "uint256"
        }
      ],
      "name": "Approval",
      "type": "event"
    },
    {
      "anonymous": false,
      "inputs": [
        {
          "indexed": true,
          "internalType": "address",
          "name": "owner",
          "type": "address"
        },
        {
          "indexed": true,
          "internalType": "address",
          "name": "operator",
          "type": "address"
        },
        {
          "indexed": false,
          "internalType": "bool",
          "name": "approved",
          "type": "bool"
        }
      ],
      "name": "ApprovalForAll",
      "type": "event"
    },
    {
      "anonymous": false,
      "inputs": [
        {
          "indexed": false,
          "internalType": "uint256",
          "name": "_fromTokenId",
          "type": "uint256"
        },
        {
          "indexed": false,
          "internalType": "uint256",
          "name": "_toTokenId",
          "type": "uint256"
        }
      ],
      "name": "BatchMetadataUpdate",
      "type": "event"
    },
    {
      "anonymous": false,
      "inputs": [
        {
          "indexed": false,
          "internalType": "uint256",
          "name": "_tokenId",
          "type": "uint256"
        }
      ],
      "name": "MetadataUpdate",
      "type": "event"
    },
    {
      "anonymous": false,
      "inputs": [
        {
          "indexed": true,
          "internalType": "address",
          "name": "previousOwner",
          "type": "address"
        },
        {
          "indexed": true,
          "internalType": "address",
          "name": "newOwner",
          "type": "address"
        }
      ],
      "name": "OwnershipTransferred",
      "type": "event"
    },
    {
      "anonymous": false,
      "inputs": [
        {
          "indexed": true,
          "internalType": "address",
          "name": "from",
          "type": "address"
        },
        {
          "indexed": true,
          "internalType": "address",
          "name": "to",
          "type": "address"
        },
        {
          "indexed": true,
          "internalType": "uint256",
          "name": "tokenId",
          "type": "uint256"
        }
      ],
      "name": "Transfer",
      "type": "event"
    },
    {
      "inputs": [
        {
          "internalType": "uint256",
          "name": "",
          "type": "uint256"
        }
      ],
      "name": "_courseProgress",
      "outputs": [
        {
          "internalType": "enum SongNFT.CourseProgress",
          "name": "",
          "type": "uint8"
        }
      ],
      "stateMutability": "view",
      "type": "function"
    },
    {
      "inputs": [
        {
          "internalType": "bytes",
          "name": "",
          "type": "bytes"
        }
      ],
      "name": "_signatures",
      "outputs": [
        {
          "internalType": "bool",
          "name": "",
          "type": "bool"
        }
      ],
      "stateMutability": "view",
      "type": "function"
    },
    {
      "inputs": [],
      "name": "_signer",
      "outputs": [
        {
          "internalType": "address",
          "name": "",
          "type": "address"
        }
      ],
      "stateMutability": "view",
      "type": "function"
    },
    {
      "inputs": [
        {
          "internalType": "address",
          "name": "to",
          "type": "address"
        },
        {
          "internalType": "uint256",
          "name": "tokenId",
          "type": "uint256"
        }
      ],
      "name": "approve",
      "outputs": [],
      "stateMutability": "nonpayable",
      "type": "function"
    },
    {
      "inputs": [
        {
          "internalType": "address",
          "name": "owner",
          "type": "address"
        }
      ],
      "name": "balanceOf",
      "outputs": [
        {
          "internalType": "uint256",
          "name": "",
          "type": "uint256"
        }
      ],
      "stateMutability": "view",
      "type": "function"
    },
    {
      "inputs": [
        {
          "internalType": "uint256",
          "name": "tokenId",
          "type": "uint256"
        }
      ],
      "name": "getApproved",
      "outputs": [
        {
          "internalType": "address",
          "name": "",
          "type": "address"
        }
      ],
      "stateMutability": "view",
      "type": "function"
    },
    {
      "inputs": [
        {
          "internalType": "address",
          "name": "_account",
          "type": "address"
        },
        {
          "internalType": "uint256",
          "name": "_tokenId",
          "type": "uint256"
        },
        {
          "internalType": "uint8",
          "name": "_progress",
          "type": "uint8"
        }
      ],
      "name": "getMessageHash",
      "outputs": [
        {
          "internalType": "bytes32",
          "name": "",
          "type": "bytes32"
        }
      ],
      "stateMutability": "pure",
      "type": "function"
    },
    {
      "inputs": [
        {
          "internalType": "address",
          "name": "owner",
          "type": "address"
        },
        {
          "internalType": "address",
          "name": "operator",
          "type": "address"
        }
      ],
      "name": "isApprovedForAll",
      "outputs": [
        {
          "internalType": "bool",
          "name": "",
          "type": "bool"
        }
      ],
      "stateMutability": "view",
      "type": "function"
    },
    {
      "inputs": [],
      "name": "name",
      "outputs": [
        {
          "internalType": "string",
          "name": "",
          "type": "string"
        }
      ],
      "stateMutability": "view",
      "type": "function"
    },
    {
      "inputs": [],
      "name": "owner",
      "outputs": [
        {
          "internalType": "address",
          "name": "",
          "type": "address"
        }
      ],
      "stateMutability": "view",
      "type": "function"
    },
    {
      "inputs": [
        {
          "internalType": "uint256",
          "name": "tokenId",
          "type": "uint256"
        }
      ],
      "name": "ownerOf",
      "outputs": [
        {
          "internalType": "address",
          "name": "",
          "type": "address"
        }
      ],
      "stateMutability": "view",
      "type": "function"
    },
    {
      "inputs": [],
      "name": "renounceOwnership",
      "outputs": [],
      "stateMutability": "nonpayable",
      "type": "function"
    },
    {
      "inputs": [],
      "name": "safeMint",
      "outputs": [],
      "stateMutability": "nonpayable",
      "type": "function"
    },
    {
      "inputs": [
        {
          "internalType": "address",
          "name": "from",
          "type": "address"
        },
        {
          "internalType": "address",
          "name": "to",
          "type": "address"
        },
        {
          "internalType": "uint256",
          "name": "tokenId",
          "type": "uint256"
        }
      ],
      "name": "safeTransferFrom",
      "outputs": [],
      "stateMutability": "nonpayable",
      "type": "function"
    },
    {
      "inputs": [
        {
          "internalType": "address",
          "name": "from",
          "type": "address"
        },
        {
          "internalType": "address",
          "name": "to",
          "type": "address"
        },
        {
          "internalType": "uint256",
          "name": "tokenId",
          "type": "uint256"
        },
        {
          "internalType": "bytes",
          "name": "data",
          "type": "bytes"
        }
      ],
      "name": "safeTransferFrom",
      "outputs": [],
      "stateMutability": "nonpayable",
      "type": "function"
    },
    {
      "inputs": [
        {
          "internalType": "address",
          "name": "operator",
          "type": "address"
        },
        {
          "internalType": "bool",
          "name": "approved",
          "type": "bool"
        }
      ],
      "name": "setApprovalForAll",
      "outputs": [],
      "stateMutability": "nonpayable",
      "type": "function"
    },
    {
      "inputs": [
        {
          "internalType": "bytes4",
          "name": "interfaceId",
          "type": "bytes4"
        }
      ],
      "name": "supportsInterface",
      "outputs": [
        {
          "internalType": "bool",
          "name": "",
          "type": "bool"
        }
      ],
      "stateMutability": "view",
      "type": "function"
    },
    {
      "inputs": [],
      "name": "symbol",
      "outputs": [
        {
          "internalType": "string",
          "name": "",
          "type": "string"
        }
      ],
      "stateMutability": "view",
      "type": "function"
    },
    {
      "inputs": [
        {
          "internalType": "uint256",
          "name": "tokenId",
          "type": "uint256"
        }
      ],
      "name": "tokenURI",
      "outputs": [
        {
          "internalType": "string",
          "name": "",
          "type": "string"
        }
      ],
      "stateMutability": "view",
      "type": "function"
    },
    {
      "inputs": [
        {
          "internalType": "address",
          "name": "from",
          "type": "address"
        },
        {
          "internalType": "address",
          "name": "to",
          "type": "address"
        },
        {
          "internalType": "uint256",
          "name": "tokenId",
          "type": "uint256"
        }
      ],
      "name": "transferFrom",
      "outputs": [],
      "stateMutability": "nonpayable",
      "type": "function"
    },
    {
      "inputs": [
        {
          "internalType": "address",
          "name": "newOwner",
          "type": "address"
        }
      ],
      "name": "transferOwnership",
      "outputs": [],
      "stateMutability": "nonpayable",
      "type": "function"
    },
    {
      "inputs": [
        {
          "internalType": "uint256",
          "name": "tokenId",
          "type": "uint256"
        },
        {
          "internalType": "uint8",
          "name": "progress",
          "type": "uint8"
        },
        {
          "internalType": "bytes",
          "name": "signature",
          "type": "bytes"
        }
      ],
      "name": "updateCourseProgress",
      "outputs": [],
      "stateMutability": "nonpayable",
      "type": "function"
    },
    {
      "inputs": [
        {
          "internalType": "bytes32",
          "name": "_msgHash",
          "type": "bytes32"
        },
        {
          "internalType": "bytes",
          "name": "_signature",
          "type": "bytes"
        }
      ],
      "name": "verify",
      "outputs": [
        {
          "internalType": "bool",
          "name": "",
          "type": "bool"
        }
      ],
      "stateMutability": "view",
      "type": "function"
    }
  ],
  "bytecode": "0x61022060405260426101a0818152608091829190620025866101c0398152602001604051806080016040528060428152602001620024c0604291398152602001604051806080016040528060428152602001620025c8604291398152602001604051806080016040528060428152602001620023fa604291398152602001604051806080016040528060428152602001620025026042913981526020016040518060800160405280604281526020016200247e6042913981526020016040518060800160405280604281526020016200260a6042913981526020016040518060800160405280604281526020016200243c60429139815260200160405180608001604052806042815260200162002544604291399052620001259060089060096200034b565b503480156200013357600080fd5b506040516200264c3803806200264c83398101604081905262000156916200040c565b336040518060400160405280600781526020016614dbdb99d3919560ca1b81525060405180604001604052806004815260200163536f6e6760e01b8152508160009081620001a59190620004e3565b506001620001b48282620004e3565b5050506001600160a01b038116620001e657604051631e4fbdf760e01b81526000600482015260240160405180910390fd5b620001f1816200026e565b5060408051808201909152600681526539b4b3b732b960d11b60208201526200021b9082620002c0565b60408051808201909152600a81526936b9b39739b2b73232b960b11b6020820152620002489033620002c0565b601280546001600160a01b0319166001600160a01b039290921691909117905562000611565b600780546001600160a01b038381166001600160a01b0319831681179093556040519116919082907f8be0079c531659141344cd1fd0a4f28419497f9722a3daafe3b4186f6b6457e090600090a35050565b6200030d8282604051602401620002d9929190620005af565b60408051601f198184030181529190526020810180516001600160e01b0390811663319af33360e01b179091526200031116565b5050565b62000327816200032a60201b62000afc1760201c565b50565b60006a636f6e736f6c652e6c6f679050600080835160208501845afa505050565b826009810192821562000389579160200282015b82811115620003895782518290620003789082620004e3565b50916020019190600101906200035f565b50620003979291506200039b565b5090565b8082111562000397576000620003b28282620003bc565b506001016200039b565b508054620003ca9062000454565b6000825580601f10620003db575050565b601f0160209004906000526020600020908101906200032791905b80821115620003975760008155600101620003f6565b6000602082840312156200041f57600080fd5b81516001600160a01b03811681146200043757600080fd5b9392505050565b634e487b7160e01b600052604160045260246000fd5b600181811c908216806200046957607f821691505b6020821081036200048a57634e487b7160e01b600052602260045260246000fd5b50919050565b601f821115620004de57600081815260208120601f850160051c81016020861015620004b95750805b601f850160051c820191505b81811015620004da57828155600101620004c5565b5050505b505050565b81516001600160401b03811115620004ff57620004ff6200043e565b620005178162000510845462000454565b8462000490565b602080601f8311600181146200054f5760008415620005365750858301515b600019600386901b1c1916600185901b178555620004da565b600085815260208120601f198616915b8281101562000580578886015182559484019460019091019084016200055f565b50858210156200059f5787850151600019600388901b60f8161c191681555b5050505050600190811b01905550565b604081526000835180604084015260005b81811015620005df5760208187018101516060868401015201620005c0565b50600060608285018101919091526001600160a01b03949094166020840152601f01601f191690910190910192915050565b611dd980620006216000396000f3fe608060405234801561001057600080fd5b506004361061014d5760003560e01c8063715018a6116100c3578063a22cb4651161007c578063a22cb465146102e9578063b88d4fde146102fc578063c87b56dd1461030f578063ca29e8c814610322578063e985e9c514610335578063f2fde38b1461034857600080fd5b8063715018a6146102575780637f82a0db1461025f5780638da5cb5b1461028f578063934836e2146102a057806395d89b41146102b35780639eabf1f2146102bb57600080fd5b8063258ae58211610115578063258ae582146101e25780633a824316146101f557806342842e0e146102165780636352211e146102295780636871ee401461023c57806370a082311461024457600080fd5b806301ffc9a71461015257806306fdde031461017a578063081812fc1461018f578063095ea7b3146101ba57806323b872dd146101cf575b600080fd5b610165610160366004611727565b61035b565b60405190151581526020015b60405180910390f35b61018261036c565b6040516101719190611794565b6101a261019d3660046117a7565b6103fe565b6040516001600160a01b039091168152602001610171565b6101cd6101c83660046117dc565b610427565b005b6101cd6101dd366004611806565b610436565b6101656101f03660046118e5565b6104c6565b61020861020336600461193d565b610554565b604051908152602001610171565b6101cd610224366004611806565b61062e565b6101a26102373660046117a7565b61064e565b6101cd610659565b610208610252366004611979565b61075f565b6101cd6107a7565b61028261026d3660046117a7565b60146020526000908152604090205460ff1681565b60405161017191906119aa565b6007546001600160a01b03166101a2565b6101cd6102ae3660046119d2565b6107bb565b610182610a54565b6101656102c9366004611a29565b805160208183018101805160138252928201919093012091525460ff1681565b6101cd6102f7366004611a5e565b610a63565b6101cd61030a366004611a9a565b610a6e565b61018261031d3660046117a7565b610a85565b6012546101a2906001600160a01b031681565b610165610343366004611b02565b610a90565b6101cd610356366004611979565b610abe565b600061036682610b1d565b92915050565b60606000805461037b90611b35565b80601f01602080910402602001604051908101604052809291908181526020018280546103a790611b35565b80156103f45780601f106103c9576101008083540402835291602001916103f4565b820191906000526020600020905b8154815290600101906020018083116103d757829003601f168201915b5050505050905090565b600061040982610b42565b506000828152600460205260409020546001600160a01b0316610366565b610432828233610b7b565b5050565b6001600160a01b03821661046557604051633250574960e11b8152600060048201526024015b60405180910390fd5b6000610472838333610b88565b9050836001600160a01b0316816001600160a01b0316146104c0576040516364283d7b60e01b81526001600160a01b038086166004830152602482018490528216604482015260640161045c565b50505050565b6000806104d38484610c81565b50509050610502604051806040016040528060098152602001681c9958dbdd995c995960ba1b81525082610cce565b60408051808201909152600d81526c7369676e65722d76657269667960981b602082015260125461053c91906001600160a01b0316610cce565b6012546001600160a01b039081169116149392505050565b600061057f604051806040016040528060078152602001661858d8dbdd5b9d60ca1b81525085610cce565b6105a8604051806040016040528060078152602001661d1bdad95b925960ca1b81525084610d13565b6105d56040518060400160405280600881526020016770726f677265737360c01b8152508360ff16610d13565b6040516bffffffffffffffffffffffff19606086901b166020820152603481018490526001600160f81b031960f884901b1660548201526055016040516020818303038152906040528051906020012090509392505050565b61064983838360405180602001604052806000815250610a6e565b505050565b600061036682610b42565b601180546000918261066a83611b6f565b9190505590506106a5604051806040016040528060138152602001723a37b5b2b724b21039b0b332a6b4b73a16969f60691b81525082610d13565b6106af3382610d58565b61074781600860005b0180546106c490611b35565b80601f01602080910402602001604051908101604052809291908181526020018280546106f090611b35565b801561073d5780601f106107125761010080835404028352916020019161073d565b820191906000526020600020905b81548152906001019060200180831161072057829003601f168201915b5050505050610d72565b6000908152601460205260409020805460ff19169055565b60006001600160a01b03821661078b576040516322718ad960e21b81526000600482015260240161045c565b506001600160a01b031660009081526003602052604090205490565b6107af610dc2565b6107b96000610def565b565b6013816040516107cb9190611b96565b9081526040519081900360200190205460ff16156108245760405162461bcd60e51b815260206004820152601660248201527514da59db985d1d5c9948105b1c9958591e48155cd95960521b604482015260640161045c565b6000610831338585610554565b9050600061083e82610e41565b905061084a81846104c6565b61088a5760405162461bcd60e51b8152602060048201526011602482015270496e76616c6964205369676e617475726560781b604482015260640161045c565b600160138460405161089c9190611b96565b9081526040805160209281900383019020805460ff19169315159390931790925560008781526002909152908120546001600160a01b031690506108fc6040518060400160405280600481526020016366726f6d60e01b81525082610cce565b6001600160a01b03811633146109465760405162461bcd60e51b815260206004820152600f60248201526e125b9d985b1a5908151bdad95b9259608a1b604482015260640161045c565b60008681526014602052604081205460ff16600281111561096957610969611994565b14806109975750600160008781526014602052604090205460ff16600281111561099557610995611994565b145b6109db5760405162461bcd60e51b815260206004820152601560248201527421b7bab939b290283937b3b932b9b99022b93937b960591b604482015260640161045c565b60001960ff861601610a16576000868152601460205260409020805460ff19166001908117909155610a119087906008906106b8565b610a4c565b60011960ff861601610a4c576000868152601460205260409020805460ff19166002908117909155610a4c9087906008906106b8565b505050505050565b60606001805461037b90611b35565b610432338383610e9a565b610a79848484610436565b6104c084848484610f39565b606061036682611062565b6001600160a01b03918216600090815260056020908152604080832093909416825291909152205460ff1690565b610ac6610dc2565b6001600160a01b038116610af057604051631e4fbdf760e01b81526000600482015260240161045c565b610af981610def565b50565b60006a636f6e736f6c652e6c6f679050600080835160208501845afa505050565b60006001600160e01b03198216632483248360e11b1480610366575061036682611173565b6000818152600260205260408120546001600160a01b03168061036657604051637e27328960e01b81526004810184905260240161045c565b61064983838360016111c3565b6000828152600260205260408120546001600160a01b0390811690831615610bb557610bb58184866112c9565b6001600160a01b03811615610bf357610bd26000856000806111c3565b6001600160a01b038116600090815260036020526040902080546000190190555b6001600160a01b03851615610c22576001600160a01b0385166000908152600360205260409020805460010190555b60008481526002602052604080822080546001600160a01b0319166001600160a01b0389811691821790925591518793918516917fddf252ad1be2c89b69c2b068fc378daa952ba7f163c4a11628f55a4df523b3ef91a4949350505050565b60008060008351604103610cbb5760208401516040850151606086015160001a610cad8882858561132d565b955095509550505050610cc7565b50508151600091506002905b9250925092565b6104328282604051602401610ce4929190611bb2565b60408051601f198184030181529190526020810180516001600160e01b031663319af33360e01b1790526113fc565b6104328282604051602401610d29929190611bdc565b60408051601f198184030181529190526020810180516001600160e01b0316632d839cb360e21b1790526113fc565b610432828260405180602001604052806000815250611405565b6000828152600660205260409020610d8a8282611c44565b506040518281527ff8e1a15aba9398e019f0b49df1a4fde98ee17ae345cb5f6b5e2c27f5033e8ce79060200160405180910390a15050565b6007546001600160a01b031633146107b95760405163118cdaa760e01b815233600482015260240161045c565b600780546001600160a01b038381166001600160a01b0319831681179093556040519116919082907f8be0079c531659141344cd1fd0a4f28419497f9722a3daafe3b4186f6b6457e090600090a35050565b6040517f19457468657265756d205369676e6564204d6573736167653a0a3332000000006020820152603c81018290526000908190605c016040516020818303038152906040528051906020012090506103668161141c565b6001600160a01b038216610ecc57604051630b61174360e31b81526001600160a01b038316600482015260240161045c565b6001600160a01b03838116600081815260056020908152604080832094871680845294825291829020805460ff191686151590811790915591519182527f17307eab39ab6107e8899845ad3d59bd9653f200f220920489ca2b5937696c31910160405180910390a3505050565b6001600160a01b0383163b156104c057604051630a85bd0160e11b81526001600160a01b0384169063150b7a0290610f7b903390889087908790600401611d04565b6020604051808303816000875af1925050508015610fb6575060408051601f3d908101601f19168201909252610fb391810190611d41565b60015b61101f573d808015610fe4576040519150601f19603f3d011682016040523d82523d6000602084013e610fe9565b606091505b50805160000361101757604051633250574960e11b81526001600160a01b038516600482015260240161045c565b805181602001fd5b6001600160e01b03198116630a85bd0160e11b1461105b57604051633250574960e11b81526001600160a01b038516600482015260240161045c565b5050505050565b606061106d82610b42565b506000828152600660205260408120805461108790611b35565b80601f01602080910402602001604051908101604052809291908181526020018280546110b390611b35565b80156111005780601f106110d557610100808354040283529160200191611100565b820191906000526020600020905b8154815290600101906020018083116110e357829003601f168201915b50505050509050600061111e60408051602081019091526000815290565b90508051600003611130575092915050565b81511561116257808260405160200161114a929190611d5e565b60405160208183030381529060405292505050919050565b61116b84611461565b949350505050565b60006001600160e01b031982166380ac58cd60e01b14806111a457506001600160e01b03198216635b5e139f60e01b145b8061036657506301ffc9a760e01b6001600160e01b0319831614610366565b80806111d757506001600160a01b03821615155b156112995760006111e784610b42565b90506001600160a01b038316158015906112135750826001600160a01b0316816001600160a01b031614155b801561122657506112248184610a90565b155b1561124f5760405163a9fbf51f60e01b81526001600160a01b038416600482015260240161045c565b81156112975783856001600160a01b0316826001600160a01b03167f8c5be1e5ebec7d5bd14f71427d1e84f3dd0314c0f7b2291e5b200ac8c7c3b92560405160405180910390a45b505b5050600090815260046020526040902080546001600160a01b0319166001600160a01b0392909216919091179055565b6112d48383836114d6565b610649576001600160a01b03831661130257604051637e27328960e01b81526004810182905260240161045c565b60405163177e802f60e01b81526001600160a01b03831660048201526024810182905260440161045c565b600080807f7fffffffffffffffffffffffffffffff5d576e7357a4501ddfe92f46681b20a084111561136857506000915060039050826113f2565b604080516000808252602082018084528a905260ff891692820192909252606081018790526080810186905260019060a0016020604051602081039080840390855afa1580156113bc573d6000803e3d6000fd5b5050604051601f1901519150506001600160a01b0381166113e8575060009250600191508290506113f2565b9250600091508190505b9450945094915050565b610af981610afc565b61140f8383611539565b6106496000848484610f39565b610af98160405160240161143291815260200190565b60408051601f198184030181529190526020810180516001600160e01b03166327b7cf8560e01b1790526113fc565b606061146c82610b42565b50600061148460408051602081019091526000815290565b905060008151116114a457604051806020016040528060008152506114cf565b806114ae8461159e565b6040516020016114bf929190611d5e565b6040516020818303038152906040525b9392505050565b60006001600160a01b0383161580159061116b5750826001600160a01b0316846001600160a01b0316148061151057506115108484610a90565b8061116b5750506000908152600460205260409020546001600160a01b03908116911614919050565b6001600160a01b03821661156357604051633250574960e11b81526000600482015260240161045c565b600061157183836000610b88565b90506001600160a01b03811615610649576040516339e3563760e11b81526000600482015260240161045c565b606060006115ab83611631565b600101905060008167ffffffffffffffff8111156115cb576115cb611842565b6040519080825280601f01601f1916602001820160405280156115f5576020820181803683370190505b5090508181016020015b600019016f181899199a1a9b1b9c1cb0b131b232b360811b600a86061a8153600a85049450846115ff57509392505050565b60008072184f03e93ff9f4daa797ed6e38ed64bf6a1f0160401b83106116705772184f03e93ff9f4daa797ed6e38ed64bf6a1f0160401b830492506040015b6d04ee2d6d415b85acef8100000000831061169c576d04ee2d6d415b85acef8100000000830492506020015b662386f26fc1000083106116ba57662386f26fc10000830492506010015b6305f5e10083106116d2576305f5e100830492506008015b61271083106116e657612710830492506004015b606483106116f8576064830492506002015b600a83106103665760010192915050565b6107b9611d8d565b6001600160e01b031981168114610af957600080fd5b60006020828403121561173957600080fd5b81356114cf81611711565b60005b8381101561175f578181015183820152602001611747565b50506000910152565b60008151808452611780816020860160208601611744565b601f01601f19169290920160200192915050565b6020815260006114cf6020830184611768565b6000602082840312156117b957600080fd5b5035919050565b80356001600160a01b03811681146117d757600080fd5b919050565b600080604083850312156117ef57600080fd5b6117f8836117c0565b946020939093013593505050565b60008060006060848603121561181b57600080fd5b611824846117c0565b9250611832602085016117c0565b9150604084013590509250925092565b634e487b7160e01b600052604160045260246000fd5b600082601f83011261186957600080fd5b813567ffffffffffffffff8082111561188457611884611842565b604051601f8301601f19908116603f011681019082821181831017156118ac576118ac611842565b816040528381528660208588010111156118c557600080fd5b836020870160208301376000602085830101528094505050505092915050565b600080604083850312156118f857600080fd5b82359150602083013567ffffffffffffffff81111561191657600080fd5b61192285828601611858565b9150509250929050565b803560ff811681146117d757600080fd5b60008060006060848603121561195257600080fd5b61195b846117c0565b9250602084013591506119706040850161192c565b90509250925092565b60006020828403121561198b57600080fd5b6114cf826117c0565b634e487b7160e01b600052602160045260246000fd5b60208101600383106119cc57634e487b7160e01b600052602160045260246000fd5b91905290565b6000806000606084860312156119e757600080fd5b833592506119f76020850161192c565b9150604084013567ffffffffffffffff811115611a1357600080fd5b611a1f86828701611858565b9150509250925092565b600060208284031215611a3b57600080fd5b813567ffffffffffffffff811115611a5257600080fd5b61116b84828501611858565b60008060408385031215611a7157600080fd5b611a7a836117c0565b915060208301358015158114611a8f57600080fd5b809150509250929050565b60008060008060808587031215611ab057600080fd5b611ab9856117c0565b9350611ac7602086016117c0565b925060408501359150606085013567ffffffffffffffff811115611aea57600080fd5b611af687828801611858565b91505092959194509250565b60008060408385031215611b1557600080fd5b611b1e836117c0565b9150611b2c602084016117c0565b90509250929050565b600181811c90821680611b4957607f821691505b602082108103611b6957634e487b7160e01b600052602260045260246000fd5b50919050565b600060018201611b8f57634e487b7160e01b600052601160045260246000fd5b5060010190565b60008251611ba8818460208701611744565b9190910192915050565b604081526000611bc56040830185611768565b905060018060a01b03831660208301529392505050565b604081526000611bef6040830185611768565b90508260208301529392505050565b601f82111561064957600081815260208120601f850160051c81016020861015611c255750805b601f850160051c820191505b81811015610a4c57828155600101611c31565b815167ffffffffffffffff811115611c5e57611c5e611842565b611c7281611c6c8454611b35565b84611bfe565b602080601f831160018114611ca75760008415611c8f5750858301515b600019600386901b1c1916600185901b178555610a4c565b600085815260208120601f198616915b82811015611cd657888601518255948401946001909101908401611cb7565b5085821015611cf45787850151600019600388901b60f8161c191681555b5050505050600190811b01905550565b6001600160a01b0385811682528416602082015260408101839052608060608201819052600090611d3790830184611768565b9695505050505050565b600060208284031215611d5357600080fd5b81516114cf81611711565b60008351611d70818460208801611744565b835190830190611d84818360208801611744565b01949350505050565b634e487b7160e01b600052605160045260246000fdfea264697066735822122031b20ff9641bd5f8093e47313bb826345b494e5c41e57d56b2d650c99d553df364736f6c63430008140033697066733a2f2f6261666b726569687975656c3733756b343236686a61706d7961716672376a7061756263766e726c766c6d74346e746f63626f746977716271336d697066733a2f2f6261666b7265696261736178766a34767769716e6b6b766b7761736364646762366a7262367379676464687a6e6c32786866777367763262717965697066733a2f2f6261666b726569677169366932686766787634633263736d356b7a637073627a64757737777a6c6f7264626374356565326762327a727a36656375697066733a2f2f6261666b7265696778686674787575776c79766d346679776a71716b337673676134366f37757869626f6571656275716b646f78766b6c62376b69697066733a2f2f6261666b726569617278626f6870676e6467376a6135346d6376636e77657573743769347170776a77616d6668336e6c6b6f637063377963746c6d697066733a2f2f6261666b7265696661706776653576773578633770347866376633796c763269676777337937637137736f61366d783634687363726d6b66707061697066733a2f2f6261666b726569647770726d6f706d326f73796f706e6d7273696a336f6333707166773667323772636d78693437786e6c72747a6e776175767765697066733a2f2f6261666b726569646f7736326f34656e746d6f6e6e716e7a71626271677a6432697936767a706d37646c7867706477796f787a707070786d666571697066733a2f2f6261666b72656964706e6b6c73753532666662746a716e6b75696875366e68646b6f786a7278796c75647861617075717634746177356c6f686569",
  "linkReferences": {},
  "deployedLinkReferences": {}
}