{
  "_format": "hh-sol-artifact-1",
  "contractName": "AssignmentSubmission",
  "sourceName": "contracts/AssignmentSubmission.sol",
  "abi": [
    {
      "inputs": [],
      "stateMutability": "nonpayable",
      "type": "constructor"
    },
    {
      "anonymous": false,
      "inputs": [
        {
          "indexed": true,
          "internalType": "address",
          "name": "student",
          "type": "address"
        },
        {
          "indexed": false,
          "internalType": "string",
          "name": "assignmentHash",
          "type": "string"
        },
        {
          "indexed": false,
          "internalType": "uint256",
          "name": "timestamp",
          "type": "uint256"
        }
      ],
      "name": "SubmissionAdded",
      "type": "event"
    },
    {
      "anonymous": false,
      "inputs": [
        {
          "indexed": true,
          "internalType": "address",
          "name": "student",
          "type": "address"
        },
        {
          "indexed": false,
          "internalType": "string",
          "name": "assignmentHash",
          "type": "string"
        },
        {
          "indexed": false,
          "internalType": "uint256",
          "name": "timestamp",
          "type": "uint256"
        }
      ],
      "name": "SubmissionVerified",
      "type": "event"
    },
    {
      "inputs": [
        {
          "internalType": "address",
          "name": "_educator",
          "type": "address"
        }
      ],
      "name": "addEducator",
      "outputs": [],
      "stateMutability": "nonpayable",
      "type": "function"
    },
    {
      "inputs": [
        {
          "internalType": "address",
          "name": "",
          "type": "address"
        }
      ],
      "name": "educators",
      "outputs": [
        {
          "internalType": "bool",
          "name": "",
          "type": "bool"
        }
      ],
      "stateMutability": "view",
      "type": "function"
    },
    {
      "inputs": [
        {
          "internalType": "uint256",
          "name": "_index",
          "type": "uint256"
        }
      ],
      "name": "getSubmission",
      "outputs": [
        {
          "internalType": "address",
          "name": "",
          "type": "address"
        },
        {
          "internalType": "string",
          "name": "",
          "type": "string"
        },
        {
          "internalType": "uint256",
          "name": "",
          "type": "uint256"
        },
        {
          "internalType": "bool",
          "name": "",
          "type": "bool"
        }
      ],
      "stateMutability": "view",
      "type": "function"
    },
    {
      "inputs": [],
      "name": "getSubmissionsCount",
      "outputs": [
        {
          "internalType": "uint256",
          "name": "",
          "type": "uint256"
        }
      ],
      "stateMutability": "view",
      "type": "function"
    },
    {
      "inputs": [
        {
          "internalType": "uint256",
          "name": "",
          "type": "uint256"
        }
      ],
      "name": "submissions",
      "outputs": [
        {
          "internalType": "address",
          "name": "student",
          "type": "address"
        },
        {
          "internalType": "string",
          "name": "assignmentHash",
          "type": "string"
        },
        {
          "internalType": "uint256",
          "name": "timestamp",
          "type": "uint256"
        },
        {
          "internalType": "bool",
          "name": "verified",
          "type": "bool"
        }
      ],
      "stateMutability": "view",
      "type": "function"
    },
    {
      "inputs": [
        {
          "internalType": "string",
          "name": "_assignmentHash",
          "type": "string"
        }
      ],
      "name": "submitAssignment",
      "outputs": [],
      "stateMutability": "nonpayable",
      "type": "function"
    },
    {
      "inputs": [
        {
          "internalType": "uint256",
          "name": "_index",
          "type": "uint256"
        }
      ],
      "name": "verifySubmission",
      "outputs": [],
      "stateMutability": "nonpayable",
      "type": "function"
    }
  ],
  "bytecode": "0x608060405234801561001057600080fd5b50336000908152600160208190526040909120805460ff19169091179055610ab08061003d6000396000f3fe608060405234801561001057600080fd5b506004361061007d5760003560e01c80634d7e7be41161005b5780634d7e7be4146100ee5780639c4b659214610103578063ad73349e14610116578063df1b6c331461012957600080fd5b80632df7c23c1461008257806336029918146100ba5780633e8686cc146100cb575b600080fd5b6100a561009036600461068e565b60016020526000908152604090205460ff1681565b60405190151581526020015b60405180910390f35b6000546040519081526020016100b1565b6100de6100d93660046106be565b61013c565b6040516100b1949392919061071d565b6101016100fc36600461068e565b6102ab565b005b6101016101113660046106be565b610301565b6100de6101243660046106be565b6104b8565b61010161013736600461076f565b61058a565b6000606060008060008054905085106101975760405162461bcd60e51b8152602060048201526018602482015277092dcecc2d8d2c840e6eac4dad2e6e6d2dedc40d2dcc8caf60431b60448201526064015b60405180910390fd5b60008086815481106101ab576101ab610820565b6000918252602091829020604080516080810190915260049092020180546001600160a01b0316825260018101805492939192918401916101eb90610836565b80601f016020809104026020016040519081016040528092919081815260200182805461021790610836565b80156102645780601f1061023957610100808354040283529160200191610264565b820191906000526020600020905b81548152906001019060200180831161024757829003601f168201915b5050509183525050600282015460208083019190915260039092015460ff161515604091820152825191830151908301516060909301519199909850919650945092505050565b3360009081526001602052604090205460ff166102da5760405162461bcd60e51b815260040161018e90610870565b6001600160a01b03166000908152600160208190526040909120805460ff19169091179055565b3360009081526001602052604090205460ff166103305760405162461bcd60e51b815260040161018e90610870565b600054811061037c5760405162461bcd60e51b8152602060048201526018602482015277092dcecc2d8d2c840e6eac4dad2e6e6d2dedc40d2dcc8caf60431b604482015260640161018e565b6000818154811061038f5761038f610820565b600091825260209091206003600490920201015460ff16156103f35760405162461bcd60e51b815260206004820152601b60248201527f5375626d697373696f6e20616c72656164792076657269666965640000000000604482015260640161018e565b60016000828154811061040857610408610820565b60009182526020822060049190910201600301805460ff19169215159290921790915580548290811061043d5761043d610820565b6000918252602082206004909102015481546001600160a01b03909116917f636514e393906df6e3174ebeff9a86b3faea676d1c0e31dc17d0f694c222133b918490811061048d5761048d610820565b9060005260206000209060040201600101426040516104ad9291906108b5565b60405180910390a250565b600081815481106104c857600080fd5b6000918252602090912060049091020180546001820180546001600160a01b039092169350906104f790610836565b80601f016020809104026020016040519081016040528092919081815260200182805461052390610836565b80156105705780601f1061054557610100808354040283529160200191610570565b820191906000526020600020905b81548152906001019060200180831161055357829003601f168201915b50505050600283015460039093015491929160ff16905084565b60408051608081018252338152602081018381524292820192909252600060608201819052805460018101825590805281517f290decd9548b62a8d60345a988386fc84ba6bc95484008f6362f93160ef3e563600490920291820180546001600160a01b0319166001600160a01b0390921691909117815592519192917f290decd9548b62a8d60345a988386fc84ba6bc95484008f6362f93160ef3e564909101906106369082610998565b5060408281015160028301556060909201516003909101805460ff19169115159190911790555133907f819c6cdbdd8f31dd7f8112acc976f7942b7b445c1173922770cb7798ad8493f3906104ad9084904290610a58565b6000602082840312156106a057600080fd5b81356001600160a01b03811681146106b757600080fd5b9392505050565b6000602082840312156106d057600080fd5b5035919050565b6000815180845260005b818110156106fd576020818501810151868301820152016106e1565b506000602082860101526020601f19601f83011685010191505092915050565b6001600160a01b0385168152608060208201819052600090610741908301866106d7565b60408301949094525090151560609091015292915050565b634e487b7160e01b600052604160045260246000fd5b60006020828403121561078157600080fd5b813567ffffffffffffffff8082111561079957600080fd5b818401915084601f8301126107ad57600080fd5b8135818111156107bf576107bf610759565b604051601f8201601f19908116603f011681019083821181831017156107e7576107e7610759565b8160405282815287602084870101111561080057600080fd5b826020860160208301376000928101602001929092525095945050505050565b634e487b7160e01b600052603260045260246000fd5b600181811c9082168061084a57607f821691505b60208210810361086a57634e487b7160e01b600052602260045260246000fd5b50919050565b60208082526025908201527f4f6e6c79206564756361746f72732063616e2063616c6c20746869732066756e60408201526431ba34b7b760d91b606082015260800190565b6040815260008084546108c781610836565b80604086015260606001808416600081146108e9576001811461090357610934565b60ff1985168884015283151560051b880183019550610934565b8960005260208060002060005b8681101561092b5781548b8201870152908401908201610910565b8a018501975050505b50505050506020929092019290925292915050565b601f82111561099357600081815260208120601f850160051c810160208610156109705750805b601f850160051c820191505b8181101561098f5782815560010161097c565b5050505b505050565b815167ffffffffffffffff8111156109b2576109b2610759565b6109c6816109c08454610836565b84610949565b602080601f8311600181146109fb57600084156109e35750858301515b600019600386901b1c1916600185901b17855561098f565b600085815260208120601f198616915b82811015610a2a57888601518255948401946001909101908401610a0b565b5085821015610a485787850151600019600388901b60f8161c191681555b5050505050600190811b01905550565b604081526000610a6b60408301856106d7565b9050826020830152939250505056fea26469706673582212207614348ebde1fdbb2beafdc1a6ede2850a608ef67b8534d797faba9b35f6ba7d64736f6c63430008140033",
  "linkReferences": {},
  "deployedLinkReferences": {}
}