{
  "_format": "hh-sol-artifact-1",
  "contractName": "AnonymousFeedback",
  "sourceName": "contracts/AnonymousFeedback.sol",
  "abi": [
    {
      "anonymous": false,
      "inputs": [
        {
          "indexed": true,
          "internalType": "uint256",
          "name": "feedbackId",
          "type": "uint256"
        }
      ],
      "name": "FeedbackSubmitted",
      "type": "event"
    },
    {
      "inputs": [],
      "name": "getAllFeedback",
      "outputs": [
        {
          "internalType": "string[]",
          "name": "",
          "type": "string[]"
        }
      ],
      "stateMutability": "view",
      "type": "function"
    },
    {
      "inputs": [
        {
          "internalType": "uint256",
          "name": "_index",
          "type": "uint256"
        }
      ],
      "name": "getFeedbackByIndex",
      "outputs": [
        {
          "internalType": "string",
          "name": "",
          "type": "string"
        }
      ],
      "stateMutability": "view",
      "type": "function"
    },
    {
      "inputs": [],
      "name": "getFeedbackCount",
      "outputs": [
        {
          "internalType": "uint256",
          "name": "",
          "type": "uint256"
        }
      ],
      "stateMutability": "view",
      "type": "function"
    },
    {
      "inputs": [
        {
          "internalType": "string",
          "name": "_feedback",
          "type": "string"
        }
      ],
      "name": "submitFeedback",
      "outputs": [],
      "stateMutability": "nonpayable",
      "type": "function"
    }
  ],
  "bytecode": "0x608060405234801561001057600080fd5b506106aa806100206000396000f3fe608060405234801561001057600080fd5b506004361061004c5760003560e01c806338c5c86b14610051578063b1049dbe14610067578063d3b6866414610087578063e341a6231461009c575b600080fd5b6000546040519081526020015b60405180910390f35b61007a61007536600461034c565b6100b1565b60405161005e91906103ab565b61008f6101ad565b60405161005e91906103c5565b6100af6100aa36600461043d565b610286565b005b60005460609082106101005760405162461bcd60e51b8152602060048201526013602482015272496e646578206f7574206f6620626f756e647360681b60448201526064015b60405180910390fd5b60008281548110610113576101136104ee565b90600052602060002001805461012890610504565b80601f016020809104026020016040519081016040528092919081815260200182805461015490610504565b80156101a15780601f10610176576101008083540402835291602001916101a1565b820191906000526020600020905b81548152906001019060200180831161018457829003601f168201915b50505050509050919050565b60606000805480602002602001604051908101604052809291908181526020016000905b8282101561027d5783829060005260206000200180546101f090610504565b80601f016020809104026020016040519081016040528092919081815260200182805461021c90610504565b80156102695780601f1061023e57610100808354040283529160200191610269565b820191906000526020600020905b81548152906001019060200180831161024c57829003601f168201915b5050505050815260200190600101906101d1565b50505050905090565b60008151116102d75760405162461bcd60e51b815260206004820152601860248201527f466565646261636b2063616e6e6f7420626520656d707479000000000000000060448201526064016100f7565b600080546001810182559080527f290decd9548b62a8d60345a988386fc84ba6bc95484008f6362f93160ef3e56301610310828261058d565b506000546103209060019061064d565b6040517f5db45c6ec0624f40e6f2fb17f59f49ea555fbfdc77902f78199a473bf80914d490600090a250565b60006020828403121561035e57600080fd5b5035919050565b6000815180845260005b8181101561038b5760208185018101518683018201520161036f565b506000602082860101526020601f19601f83011685010191505092915050565b6020815260006103be6020830184610365565b9392505050565b6000602080830181845280855180835260408601915060408160051b870101925083870160005b8281101561041a57603f19888603018452610408858351610365565b945092850192908501906001016103ec565b5092979650505050505050565b634e487b7160e01b600052604160045260246000fd5b60006020828403121561044f57600080fd5b813567ffffffffffffffff8082111561046757600080fd5b818401915084601f83011261047b57600080fd5b81358181111561048d5761048d610427565b604051601f8201601f19908116603f011681019083821181831017156104b5576104b5610427565b816040528281528760208487010111156104ce57600080fd5b826020860160208301376000928101602001929092525095945050505050565b634e487b7160e01b600052603260045260246000fd5b600181811c9082168061051857607f821691505b60208210810361053857634e487b7160e01b600052602260045260246000fd5b50919050565b601f82111561058857600081815260208120601f850160051c810160208610156105655750805b601f850160051c820191505b8181101561058457828155600101610571565b5050505b505050565b815167ffffffffffffffff8111156105a7576105a7610427565b6105bb816105b58454610504565b8461053e565b602080601f8311600181146105f057600084156105d85750858301515b600019600386901b1c1916600185901b178555610584565b600085815260208120601f198616915b8281101561061f57888601518255948401946001909101908401610600565b508582101561063d5787850151600019600388901b60f8161c191681555b5050505050600190811b01905550565b8181038181111561066e57634e487b7160e01b600052601160045260246000fd5b9291505056fea26469706673582212201dbdbd8c4b5539e03dda1047dd3165d1116b12c57b918932f726e8fe9f477e0464736f6c63430008140033",
  "linkReferences": {},
  "deployedLinkReferences": {}
}