{
  "_format": "hh-sol-artifact-1",
  "contractName": "StudyTracker",
  "sourceName": "contracts/StudyTracker.sol",
  "abi": [
    {
      "inputs": [],
      "name": "getTotalStudyTime",
      "outputs": [
        {
          "internalType": "uint256",
          "name": "",
          "type": "uint256"
        }
      ],
      "stateMutability": "view",
      "type": "function"
    },
    {
      "inputs": [
        {
          "internalType": "uint256",
          "name": "duration",
          "type": "uint256"
        }
      ],
      "name": "recordStudySession",
      "outputs": [],
      "stateMutability": "nonpayable",
      "type": "function"
    },
    {
      "inputs": [
        {
          "internalType": "address",
          "name": "",
          "type": "address"
        }
      ],
      "name": "studyTimes",
      "outputs": [
        {
          "internalType": "uint256",
          "name": "",
          "type": "uint256"
        }
      ],
      "stateMutability": "view",
      "type": "function"
    }
  ],
  "bytecode": "0x608060405234801561001057600080fd5b5061016b806100206000396000f3fe608060405234801561001057600080fd5b50600436106100415760003560e01c806324e37f34146100465780633a71271314610069578063fdaf95ae14610089575b600080fd5b336000908152602081905260409020545b60405190815260200160405180910390f35b6100576100773660046100c5565b60006020819052908152604090205481565b61009c6100973660046100f5565b61009e565b005b33600090815260208190526040812080548392906100bd90849061010e565b909155505050565b6000602082840312156100d757600080fd5b81356001600160a01b03811681146100ee57600080fd5b9392505050565b60006020828403121561010757600080fd5b5035919050565b8082018082111561012f57634e487b7160e01b600052601160045260246000fd5b9291505056fea2646970667358221220d8ec8727c10efc9dac2e1d533e5f018fcc6d974cecedc17a168e846991944a7164736f6c63430008140033",
  "linkReferences": {},
  "deployedLinkReferences": {}
}