{
  "_format": "hh-sol-artifact-1",
  "contractName": "StudyGroup",
  "sourceName": "contracts/StudyGroup.sol",
  "abi": [
    {
      "anonymous": false,
      "inputs": [
        {
          "indexed": true,
          "internalType": "address",
          "name": "member",
          "type": "address"
        }
      ],
      "name": "MemberJoined",
      "type": "event"
    },
    {
      "anonymous": false,
      "inputs": [
        {
          "indexed": true,
          "internalType": "address",
          "name": "sender",
          "type": "address"
        },
        {
          "indexed": false,
          "internalType": "string",
          "name": "content",
          "type": "string"
        },
        {
          "indexed": false,
          "internalType": "uint256",
          "name": "timestamp",
          "type": "uint256"
        }
      ],
      "name": "MessageSent",
      "type": "event"
    },
    {
      "inputs": [
        {
          "internalType": "address",
          "name": "_address",
          "type": "address"
        }
      ],
      "name": "getMemberStatus",
      "outputs": [
        {
          "internalType": "bool",
          "name": "",
          "type": "bool"
        }
      ],
      "stateMutability": "view",
      "type": "function"
    },
    {
      "inputs": [],
      "name": "getMessages",
      "outputs": [
        {
          "components": [
            {
              "internalType": "address",
              "name": "sender",
              "type": "address"
            },
            {
              "internalType": "string",
              "name": "content",
              "type": "string"
            },
            {
              "internalType": "uint256",
              "name": "timestamp",
              "type": "uint256"
            }
          ],
          "internalType": "struct StudyGroup.Message[]",
          "name": "",
          "type": "tuple[]"
        }
      ],
      "stateMutability": "view",
      "type": "function"
    },
    {
      "inputs": [],
      "name": "joinGroup",
      "outputs": [],
      "stateMutability": "nonpayable",
      "type": "function"
    },
    {
      "inputs": [
        {
          "internalType": "address",
          "name": "",
          "type": "address"
        }
      ],
      "name": "members",
      "outputs": [
        {
          "internalType": "bool",
          "name": "",
          "type": "bool"
        }
      ],
      "stateMutability": "view",
      "type": "function"
    },
    {
      "inputs": [
        {
          "internalType": "uint256",
          "name": "",
          "type": "uint256"
        }
      ],
      "name": "messages",
      "outputs": [
        {
          "internalType": "address",
          "name": "sender",
          "type": "address"
        },
        {
          "internalType": "string",
          "name": "content",
          "type": "string"
        },
        {
          "internalType": "uint256",
          "name": "timestamp",
          "type": "uint256"
        }
      ],
      "stateMutability": "view",
      "type": "function"
    },
    {
      "inputs": [
        {
          "internalType": "string",
          "name": "_content",
          "type": "string"
        }
      ],
      "name": "sendMessage",
      "outputs": [],
      "stateMutability": "nonpayable",
      "type": "function"
    }
  ],
  "bytecode": "0x608060405234801561001057600080fd5b5061093b806100206000396000f3fe608060405234801561001057600080fd5b50600436106100625760003560e01c806308ae4b0c146100675780630d80fefd1461009f578063469c8110146100c15780635ff6cbf3146100d65780639ac79e0a146100eb578063dde8535f146100f3575b600080fd5b61008a610075366004610584565b60016020526000908152604090205460ff1681565b60405190151581526020015b60405180910390f35b6100b26100ad3660046105b4565b61011f565b60405161009693929190610613565b6100d46100cf36600461065d565b6101e7565b005b6100de6103db565b604051610096919061070e565b6100d46104ec565b61008a610101366004610584565b6001600160a01b031660009081526001602052604090205460ff1690565b6000818154811061012f57600080fd5b6000918252602090912060039091020180546001820180546001600160a01b0390921693509061015e9061079a565b80601f016020809104026020016040519081016040528092919081815260200182805461018a9061079a565b80156101d75780601f106101ac576101008083540402835291602001916101d7565b820191906000526020600020905b8154815290600101906020018083116101ba57829003601f168201915b5050505050908060020154905083565b3360009081526001602052604090205460ff166102555760405162461bcd60e51b815260206004820152602160248201527f4d7573742062652061206d656d62657220746f2073656e64206d6573736167656044820152607360f81b60648201526084015b60405180910390fd5b60008151116102a65760405162461bcd60e51b815260206004820152601760248201527f4d6573736167652063616e6e6f7420626520656d707479000000000000000000604482015260640161024c565b610118815111156102ec5760405162461bcd60e51b815260206004820152601060248201526f4d65737361676520746f6f206c6f6e6760801b604482015260640161024c565b604080516060810182523381526020810183815242928201929092526000805460018101825590805281517f290decd9548b62a8d60345a988386fc84ba6bc95484008f6362f93160ef3e563600390920291820180546001600160a01b0319166001600160a01b0390921691909117815592519192917f290decd9548b62a8d60345a988386fc84ba6bc95484008f6362f93160ef3e564909101906103919082610823565b506040918201516002909101555133907f4816bdd3b9d39acdd4da0ae7412d5523081e916c6a56e481063e475b86ef7c5b906103d090849042906108e3565b60405180910390a250565b60606000805480602002602001604051908101604052809291908181526020016000905b828210156104e357600084815260209081902060408051606081019091526003850290910180546001600160a01b0316825260018101805492939192918401916104489061079a565b80601f01602080910402602001604051908101604052809291908181526020018280546104749061079a565b80156104c15780601f10610496576101008083540402835291602001916104c1565b820191906000526020600020905b8154815290600101906020018083116104a457829003601f168201915b50505050508152602001600282015481525050815260200190600101906103ff565b50505050905090565b3360009081526001602052604090205460ff161561053f5760405162461bcd60e51b815260206004820152601060248201526f20b63932b0b23c90309036b2b6b132b960811b604482015260640161024c565b336000818152600160208190526040808320805460ff1916909217909155517f0abf3b3f643594d958297062a019458e27d7766629590ac621aa1000fa1298ab9190a2565b60006020828403121561059657600080fd5b81356001600160a01b03811681146105ad57600080fd5b9392505050565b6000602082840312156105c657600080fd5b5035919050565b6000815180845260005b818110156105f3576020818501810151868301820152016105d7565b506000602082860101526020601f19601f83011685010191505092915050565b6001600160a01b0384168152606060208201819052600090610637908301856105cd565b9050826040830152949350505050565b634e487b7160e01b600052604160045260246000fd5b60006020828403121561066f57600080fd5b813567ffffffffffffffff8082111561068757600080fd5b818401915084601f83011261069b57600080fd5b8135818111156106ad576106ad610647565b604051601f8201601f19908116603f011681019083821181831017156106d5576106d5610647565b816040528281528760208487010111156106ee57600080fd5b826020860160208301376000928101602001929092525095945050505050565b60006020808301818452808551808352604092508286019150828160051b87010184880160005b8381101561078c57888303603f19018552815180516001600160a01b031684528781015160608986018190529061076e828701826105cd565b92890151958901959095525094870194925090860190600101610735565b509098975050505050505050565b600181811c908216806107ae57607f821691505b6020821081036107ce57634e487b7160e01b600052602260045260246000fd5b50919050565b601f82111561081e57600081815260208120601f850160051c810160208610156107fb5750805b601f850160051c820191505b8181101561081a57828155600101610807565b5050505b505050565b815167ffffffffffffffff81111561083d5761083d610647565b6108518161084b845461079a565b846107d4565b602080601f831160018114610886576000841561086e5750858301515b600019600386901b1c1916600185901b17855561081a565b600085815260208120601f198616915b828110156108b557888601518255948401946001909101908401610896565b50858210156108d35787850151600019600388901b60f8161c191681555b5050505050600190811b01905550565b6040815260006108f660408301856105cd565b9050826020830152939250505056fea2646970667358221220a10f25017c5c42478af5eedd0b0423b98b2275ee8b22e26fa9454747f8a9787864736f6c63430008140033",
  "linkReferences": {},
  "deployedLinkReferences": {}
}